{
    "contractName": "Market",
    "abi": [
        {
            "anonymous": false,
            "inputs": [
                {
                    "indexed": true,
                    "internalType": "address",
                    "name": "user",
                    "type": "address"
                },
                {
                    "indexed": true,
                    "internalType": "address",
                    "name": "asset",
                    "type": "address"
                },
                {
                    "indexed": true,
                    "internalType": "address",
                    "name": "nftAddress",
                    "type": "address"
                },
                {
                    "indexed": false,
                    "internalType": "uint256",
                    "name": "nftTokenID",
                    "type": "uint256"
                },
                {
                    "indexed": false,
                    "internalType": "uint256",
                    "name": "amount",
                    "type": "uint256"
                }
            ],
            "name": "Borrow",
            "type": "event"
        },
        {
            "anonymous": false,
            "inputs": [
                {
                    "indexed": true,
                    "internalType": "address",
                    "name": "user",
                    "type": "address"
                },
                {
                    "indexed": true,
                    "internalType": "address",
                    "name": "asset",
                    "type": "address"
                },
                {
                    "indexed": false,
                    "internalType": "uint256",
                    "name": "amount",
                    "type": "uint256"
                }
            ],
            "name": "Deposit",
            "type": "event"
        },
        {
            "anonymous": false,
            "inputs": [
                {
                    "indexed": false,
                    "internalType": "uint8",
                    "name": "version",
                    "type": "uint8"
                }
            ],
            "name": "Initialized",
            "type": "event"
        },
        {
            "anonymous": false,
            "inputs": [
                {
                    "indexed": true,
                    "internalType": "address",
                    "name": "user",
                    "type": "address"
                },
                {
                    "indexed": false,
                    "internalType": "uint256",
                    "name": "loanId",
                    "type": "uint256"
                }
            ],
            "name": "Liquidate",
            "type": "event"
        },
        {
            "anonymous": false,
            "inputs": [
                {
                    "indexed": true,
                    "internalType": "address",
                    "name": "previousOwner",
                    "type": "address"
                },
                {
                    "indexed": true,
                    "internalType": "address",
                    "name": "newOwner",
                    "type": "address"
                }
            ],
            "name": "OwnershipTransferred",
            "type": "event"
        },
        {
            "anonymous": false,
            "inputs": [
                {
                    "indexed": true,
                    "internalType": "address",
                    "name": "user",
                    "type": "address"
                },
                {
                    "indexed": false,
                    "internalType": "uint256",
                    "name": "loanId",
                    "type": "uint256"
                }
            ],
            "name": "Repay",
            "type": "event"
        },
        {
            "anonymous": false,
            "inputs": [
                {
                    "indexed": true,
                    "internalType": "address",
                    "name": "user",
                    "type": "address"
                },
                {
                    "indexed": true,
                    "internalType": "address",
                    "name": "asset",
                    "type": "address"
                },
                {
                    "indexed": false,
                    "internalType": "uint256",
                    "name": "amount",
                    "type": "uint256"
                }
            ],
            "name": "Withdraw",
            "type": "event"
        },
        {
            "inputs": [
                {
                    "internalType": "address",
                    "name": "asset",
                    "type": "address"
                },
                {
                    "internalType": "address",
                    "name": "reserveAddress",
                    "type": "address"
                }
            ],
            "name": "addReserve",
            "outputs": [],
            "stateMutability": "nonpayable",
            "type": "function"
        },
        {
            "inputs": [
                {
                    "internalType": "address",
                    "name": "asset",
                    "type": "address"
                },
                {
                    "internalType": "uint256",
                    "name": "amount",
                    "type": "uint256"
                },
                {
                    "internalType": "address",
                    "name": "nftAddress",
                    "type": "address"
                },
                {
                    "internalType": "uint256",
                    "name": "nftTokenID",
                    "type": "uint256"
                }
            ],
            "name": "borrow",
            "outputs": [],
            "stateMutability": "nonpayable",
            "type": "function"
        },
        {
            "inputs": [
                {
                    "internalType": "address",
                    "name": "asset",
                    "type": "address"
                },
                {
                    "internalType": "uint256",
                    "name": "amount",
                    "type": "uint256"
                }
            ],
            "name": "deposit",
            "outputs": [],
            "stateMutability": "nonpayable",
            "type": "function"
        },
        {
            "inputs": [
                {
                    "internalType": "address",
                    "name": "asset",
                    "type": "address"
                }
            ],
            "name": "getReserveAddress",
            "outputs": [
                {
                    "internalType": "address",
                    "name": "",
                    "type": "address"
                }
            ],
            "stateMutability": "view",
            "type": "function"
        },
        {
            "inputs": [
                {
                    "internalType": "contract IAddressesProvider",
                    "name": "addressesProvider",
                    "type": "address"
                }
            ],
            "name": "initialize",
            "outputs": [],
            "stateMutability": "nonpayable",
            "type": "function"
        },
        {
            "inputs": [
                {
                    "internalType": "address",
                    "name": "asset",
                    "type": "address"
                }
            ],
            "name": "isAssetSupported",
            "outputs": [
                {
                    "internalType": "bool",
                    "name": "",
                    "type": "bool"
                }
            ],
            "stateMutability": "view",
            "type": "function"
        },
        {
            "inputs": [
                {
                    "internalType": "uint256",
                    "name": "loanId",
                    "type": "uint256"
                }
            ],
            "name": "liquidate",
            "outputs": [],
            "stateMutability": "nonpayable",
            "type": "function"
        },
        {
            "inputs": [],
            "name": "owner",
            "outputs": [
                {
                    "internalType": "address",
                    "name": "",
                    "type": "address"
                }
            ],
            "stateMutability": "view",
            "type": "function"
        },
        {
            "inputs": [],
            "name": "renounceOwnership",
            "outputs": [],
            "stateMutability": "nonpayable",
            "type": "function"
        },
        {
            "inputs": [
                {
                    "internalType": "uint256",
                    "name": "loanId",
                    "type": "uint256"
                }
            ],
            "name": "repay",
            "outputs": [],
            "stateMutability": "nonpayable",
            "type": "function"
        },
        {
            "inputs": [
                {
                    "internalType": "address",
                    "name": "newOwner",
                    "type": "address"
                }
            ],
            "name": "transferOwnership",
            "outputs": [],
            "stateMutability": "nonpayable",
            "type": "function"
        },
        {
            "inputs": [
                {
                    "internalType": "address",
                    "name": "asset",
                    "type": "address"
                },
                {
                    "internalType": "uint256",
                    "name": "amount",
                    "type": "uint256"
                }
            ],
            "name": "withdraw",
            "outputs": [],
            "stateMutability": "nonpayable",
            "type": "function"
        }
    ],
    "bytecode": "608060405234801561001057600080fd5b506001606555610c74806100256000396000f3fe608060405234801561001057600080fd5b50600436106100b45760003560e01c8063715018a611610071578063715018a61461018e5780638da5cb5b14610196578063c4d66de8146101a7578063d0280539146101ba578063f2fde38b146101cd578063f3fef3a3146101e057600080fd5b806319732621146100b9578063371fd8e6146100ce578063415f1240146100e1578063464b4158146100f457806347e7ef241461013757806351e8b7fb1461014a575b600080fd5b6100cc6100c7366004610a14565b6101f3565b005b6100cc6100dc366004610a4d565b6102c9565b6100cc6100ef366004610a4d565b6103a4565b610122610102366004610a66565b6001600160a01b0390811660009081526066602052604090205416151590565b60405190151581526020015b60405180910390f35b6100cc610145366004610a8a565b610473565b610176610158366004610a66565b6001600160a01b039081166000908152606660205260409020541690565b6040516001600160a01b03909116815260200161012e565b6100cc61055d565b6033546001600160a01b0316610176565b6100cc6101b5366004610a66565b610593565b6100cc6101c8366004610ab6565b610624565b6100cc6101db366004610a66565b610747565b6100cc6101ee366004610a8a565b6107e2565b6033546001600160a01b031633146102265760405162461bcd60e51b815260040161021d90610afe565b60405180910390fd5b60405163095ea7b360e01b81526001600160a01b038281166004830152600019602483015283169063095ea7b3906044016020604051808303816000875af1158015610276573d6000803e3d6000fd5b505050506040513d601f19601f8201168201806040525081019061029a9190610b33565b506001600160a01b03918216600090815260666020526040902080546001600160a01b03191691909216179055565b6002606554036102eb5760405162461bcd60e51b815260040161021d90610b55565b60026065556067546040516376aca94160e01b81526001600160a01b0390911660048201526024810182905273__$936248c7aa56943f36455ec1e9338b507c$__906376aca9419060440160006040518083038186803b15801561034e57600080fd5b505af4158015610362573d6000803e3d6000fd5b50506040518381523392507f5c16de4f8b59bd9caf0f49a545f25819a895ed223294290b408242e72a59423191506020015b60405180910390a2506001606555565b6002606554036103c65760405162461bcd60e51b815260040161021d90610b55565b60026065556067546040516341381a7b60e11b81526001600160a01b0390911660048201526024810182905273__$be5316a0eb725fe6b0409dc67950e87810$__9063827034f69060440160006040518083038186803b15801561042957600080fd5b505af415801561043d573d6000803e3d6000fd5b50506040518381523392507f08813a3631e12129135cc9440d3fea50eec346f1673b20b994b0456d5d46ccb99150602001610394565b6002606554036104955760405162461bcd60e51b815260040161021d90610b55565b600260655560405163dc3103e760e01b8152606660048201526001600160a01b03831660248201526044810182905273__$57786f5928e6732601b1f1e4332a79c409$__9063dc3103e79060640160006040518083038186803b1580156104fb57600080fd5b505af415801561050f573d6000803e3d6000fd5b50506040518381526001600160a01b03851692503391507f5548c837ab068cf56a2c2479df0882a4922fd203edb7517321831d95078c5f62906020015b60405180910390a350506001606555565b6033546001600160a01b031633146105875760405162461bcd60e51b815260040161021d90610afe565b61059160006108cb565b565b600061059f600161091d565b905080156105b7576000805461ff0019166101001790555b6105bf6109a5565b606780546001600160a01b0319166001600160a01b0384161790558015610620576000805461ff0019169055604051600181527f7f26b83ff96e1f2b6a682f133852f6798a09c465da95921460cefb38474024989060200160405180910390a15b5050565b6002606554036106465760405162461bcd60e51b815260040161021d90610b55565b6002606555606754604051639344163f60e01b81526001600160a01b03918216600482015260666024820152858216604482015260648101859052908316608482015260a4810182905273__$936248c7aa56943f36455ec1e9338b507c$__90639344163f9060c401602060405180830381865af41580156106cc573d6000803e3d6000fd5b505050506040513d601f19601f820116820180604052508101906106f09190610b8c565b5060408051828152602081018590526001600160a01b03808516929087169133917f96558a334f4759f0e7c423d68c84721860bd8fbf94ddc4e55158ecb125ad04b5910160405180910390a4505060016065555050565b6033546001600160a01b031633146107715760405162461bcd60e51b815260040161021d90610afe565b6001600160a01b0381166107d65760405162461bcd60e51b815260206004820152602660248201527f4f776e61626c653a206e6577206f776e657220697320746865207a65726f206160448201526564647265737360d01b606482015260840161021d565b6107df816108cb565b50565b6002606554036108045760405162461bcd60e51b815260040161021d90610b55565b600260655560675460405163fc414f7b60e01b81526001600160a01b0391821660048201526066602482015290831660448201526064810182905273__$57786f5928e6732601b1f1e4332a79c409$__9063fc414f7b9060840160006040518083038186803b15801561087657600080fd5b505af415801561088a573d6000803e3d6000fd5b50506040518381526001600160a01b03851692503391507f9b1bfa7fa9ee420a16e124f794c35ac9f90472acc99140eb2f6447c714cad8eb9060200161054c565b603380546001600160a01b038381166001600160a01b0319831681179093556040519116919082907f8be0079c531659141344cd1fd0a4f28419497f9722a3daafe3b4186f6b6457e090600090a35050565b60008054610100900460ff1615610964578160ff1660011480156109405750303b155b61095c5760405162461bcd60e51b815260040161021d90610ba5565b506000919050565b60005460ff80841691161061098b5760405162461bcd60e51b815260040161021d90610ba5565b506000805460ff191660ff92909216919091179055600190565b600054610100900460ff166109cc5760405162461bcd60e51b815260040161021d90610bf3565b610591600054610100900460ff166109f65760405162461bcd60e51b815260040161021d90610bf3565b610591336108cb565b6001600160a01b03811681146107df57600080fd5b60008060408385031215610a2757600080fd5b8235610a32816109ff565b91506020830135610a42816109ff565b809150509250929050565b600060208284031215610a5f57600080fd5b5035919050565b600060208284031215610a7857600080fd5b8135610a83816109ff565b9392505050565b60008060408385031215610a9d57600080fd5b8235610aa8816109ff565b946020939093013593505050565b60008060008060808587031215610acc57600080fd5b8435610ad7816109ff565b9350602085013592506040850135610aee816109ff565b9396929550929360600135925050565b6020808252818101527f4f776e61626c653a2063616c6c6572206973206e6f7420746865206f776e6572604082015260600190565b600060208284031215610b4557600080fd5b81518015158114610a8357600080fd5b6020808252601f908201527f5265656e7472616e637947756172643a207265656e7472616e742063616c6c00604082015260600190565b600060208284031215610b9e57600080fd5b5051919050565b6020808252602e908201527f496e697469616c697a61626c653a20636f6e747261637420697320616c72656160408201526d191e481a5b9a5d1a585b1a5e995960921b606082015260800190565b6020808252602b908201527f496e697469616c697a61626c653a20636f6e7472616374206973206e6f74206960408201526a6e697469616c697a696e6760a81b60608201526080019056fea264697066735822122032c38c6acb479ef3fb9e89bf090c08ad00ef6aefd3d67dd3fb744a4e4766c27f64736f6c634300080f0033",
    "sourcePath": "/home/jonyz/Desktop/lenft/contracts/protocol/Market.sol",
    "compiler": {
        "name": "solc",
        "version": "0.8.15+commit.e14f2714"
    },
    "functionHashes": {
        "addReserve(address,address)": "19732621",
        "borrow(address,uint256,address,uint256)": "d0280539",
        "deposit(address,uint256)": "47e7ef24",
        "getReserveAddress(address)": "51e8b7fb",
        "initialize(address)": "c4d66de8",
        "isAssetSupported(address)": "464b4158",
        "liquidate(uint256)": "415f1240",
        "owner()": "8da5cb5b",
        "renounceOwnership()": "715018a6",
        "repay(uint256)": "371fd8e6",
        "transferOwnership(address)": "f2fde38b",
        "withdraw(address,uint256)": "f3fef3a3"
    },
    "gasEstimates": {
        "creation": {
            "codeDepositCost": "637600",
            "executionCost": "22776",
            "totalCost": "660376"
        },
        "external": {
            "addReserve(address,address)": "infinite",
            "borrow(address,uint256,address,uint256)": "infinite",
            "deposit(address,uint256)": "infinite",
            "getReserveAddress(address)": "2672",
            "initialize(address)": "infinite",
            "isAssetSupported(address)": "2608",
            "liquidate(uint256)": "infinite",
            "owner()": "2353",
            "renounceOwnership()": "28117",
            "repay(uint256)": "infinite",
            "transferOwnership(address)": "infinite",
            "withdraw(address,uint256)": "infinite"
        }
    }
}